{
  "_format": "hh-sol-artifact-1",
  "contractName": "PlatziPunks",
  "sourceName": "contracts/PlatziPunks.sol",
  "abi": [
    {
      "inputs": [
        {
          "internalType": "uint256",
          "name": "_maxSupply",
          "type": "uint256"
        }
      ],
      "stateMutability": "nonpayable",
      "type": "constructor"
    },
    {
      "anonymous": false,
      "inputs": [
        {
          "indexed": true,
          "internalType": "address",
          "name": "owner",
          "type": "address"
        },
        {
          "indexed": true,
          "internalType": "address",
          "name": "approved",
          "type": "address"
        },
        {
          "indexed": true,
          "internalType": "uint256",
          "name": "tokenId",
          "type": "uint256"
        }
      ],
      "name": "Approval",
      "type": "event"
    },
    {
      "anonymous": false,
      "inputs": [
        {
          "indexed": true,
          "internalType": "address",
          "name": "owner",
          "type": "address"
        },
        {
          "indexed": true,
          "internalType": "address",
          "name": "operator",
          "type": "address"
        },
        {
          "indexed": false,
          "internalType": "bool",
          "name": "approved",
          "type": "bool"
        }
      ],
      "name": "ApprovalForAll",
      "type": "event"
    },
    {
      "anonymous": false,
      "inputs": [
        {
          "indexed": true,
          "internalType": "address",
          "name": "from",
          "type": "address"
        },
        {
          "indexed": true,
          "internalType": "address",
          "name": "to",
          "type": "address"
        },
        {
          "indexed": true,
          "internalType": "uint256",
          "name": "tokenId",
          "type": "uint256"
        }
      ],
      "name": "Transfer",
      "type": "event"
    },
    {
      "inputs": [
        {
          "internalType": "address",
          "name": "to",
          "type": "address"
        },
        {
          "internalType": "uint256",
          "name": "tokenId",
          "type": "uint256"
        }
      ],
      "name": "approve",
      "outputs": [],
      "stateMutability": "nonpayable",
      "type": "function"
    },
    {
      "inputs": [
        {
          "internalType": "address",
          "name": "owner",
          "type": "address"
        }
      ],
      "name": "balanceOf",
      "outputs": [
        {
          "internalType": "uint256",
          "name": "",
          "type": "uint256"
        }
      ],
      "stateMutability": "view",
      "type": "function"
    },
    {
      "inputs": [
        {
          "internalType": "uint256",
          "name": "_tokenId",
          "type": "uint256"
        },
        {
          "internalType": "address",
          "name": "_minter",
          "type": "address"
        }
      ],
      "name": "deterministicPseudoRandomDNA",
      "outputs": [
        {
          "internalType": "uint256",
          "name": "",
          "type": "uint256"
        }
      ],
      "stateMutability": "pure",
      "type": "function"
    },
    {
      "inputs": [
        {
          "internalType": "uint256",
          "name": "_dna",
          "type": "uint256"
        }
      ],
      "name": "getAccessoriesType",
      "outputs": [
        {
          "internalType": "string",
          "name": "",
          "type": "string"
        }
      ],
      "stateMutability": "view",
      "type": "function"
    },
    {
      "inputs": [
        {
          "internalType": "uint256",
          "name": "tokenId",
          "type": "uint256"
        }
      ],
      "name": "getApproved",
      "outputs": [
        {
          "internalType": "address",
          "name": "",
          "type": "address"
        }
      ],
      "stateMutability": "view",
      "type": "function"
    },
    {
      "inputs": [
        {
          "internalType": "uint256",
          "name": "_dna",
          "type": "uint256"
        }
      ],
      "name": "getClotheColor",
      "outputs": [
        {
          "internalType": "string",
          "name": "",
          "type": "string"
        }
      ],
      "stateMutability": "view",
      "type": "function"
    },
    {
      "inputs": [
        {
          "internalType": "uint256",
          "name": "_dna",
          "type": "uint256"
        }
      ],
      "name": "getClotheType",
      "outputs": [
        {
          "internalType": "string",
          "name": "",
          "type": "string"
        }
      ],
      "stateMutability": "view",
      "type": "function"
    },
    {
      "inputs": [
        {
          "internalType": "uint256",
          "name": "_dna",
          "type": "uint256"
        }
      ],
      "name": "getEyeBrowType",
      "outputs": [
        {
          "internalType": "string",
          "name": "",
          "type": "string"
        }
      ],
      "stateMutability": "view",
      "type": "function"
    },
    {
      "inputs": [
        {
          "internalType": "uint256",
          "name": "_dna",
          "type": "uint256"
        }
      ],
      "name": "getEyeType",
      "outputs": [
        {
          "internalType": "string",
          "name": "",
          "type": "string"
        }
      ],
      "stateMutability": "view",
      "type": "function"
    },
    {
      "inputs": [
        {
          "internalType": "uint256",
          "name": "_dna",
          "type": "uint256"
        }
      ],
      "name": "getFacialHairColor",
      "outputs": [
        {
          "internalType": "string",
          "name": "",
          "type": "string"
        }
      ],
      "stateMutability": "view",
      "type": "function"
    },
    {
      "inputs": [
        {
          "internalType": "uint256",
          "name": "_dna",
          "type": "uint256"
        }
      ],
      "name": "getFacialHairType",
      "outputs": [
        {
          "internalType": "string",
          "name": "",
          "type": "string"
        }
      ],
      "stateMutability": "view",
      "type": "function"
    },
    {
      "inputs": [
        {
          "internalType": "uint256",
          "name": "_dna",
          "type": "uint256"
        }
      ],
      "name": "getGraphicType",
      "outputs": [
        {
          "internalType": "string",
          "name": "",
          "type": "string"
        }
      ],
      "stateMutability": "view",
      "type": "function"
    },
    {
      "inputs": [
        {
          "internalType": "uint256",
          "name": "_dna",
          "type": "uint256"
        }
      ],
      "name": "getHairColor",
      "outputs": [
        {
          "internalType": "string",
          "name": "",
          "type": "string"
        }
      ],
      "stateMutability": "view",
      "type": "function"
    },
    {
      "inputs": [
        {
          "internalType": "uint256",
          "name": "_dna",
          "type": "uint256"
        }
      ],
      "name": "getHatColor",
      "outputs": [
        {
          "internalType": "string",
          "name": "",
          "type": "string"
        }
      ],
      "stateMutability": "view",
      "type": "function"
    },
    {
      "inputs": [
        {
          "internalType": "uint256",
          "name": "_dna",
          "type": "uint256"
        }
      ],
      "name": "getMouthType",
      "outputs": [
        {
          "internalType": "string",
          "name": "",
          "type": "string"
        }
      ],
      "stateMutability": "view",
      "type": "function"
    },
    {
      "inputs": [
        {
          "internalType": "uint256",
          "name": "_dna",
          "type": "uint256"
        }
      ],
      "name": "getSkinColor",
      "outputs": [
        {
          "internalType": "string",
          "name": "",
          "type": "string"
        }
      ],
      "stateMutability": "view",
      "type": "function"
    },
    {
      "inputs": [
        {
          "internalType": "uint256",
          "name": "_dna",
          "type": "uint256"
        }
      ],
      "name": "getTopType",
      "outputs": [
        {
          "internalType": "string",
          "name": "",
          "type": "string"
        }
      ],
      "stateMutability": "view",
      "type": "function"
    },
    {
      "inputs": [
        {
          "internalType": "uint256",
          "name": "_dna",
          "type": "uint256"
        }
      ],
      "name": "imageByDNA",
      "outputs": [
        {
          "internalType": "string",
          "name": "",
          "type": "string"
        }
      ],
      "stateMutability": "view",
      "type": "function"
    },
    {
      "inputs": [
        {
          "internalType": "address",
          "name": "owner",
          "type": "address"
        },
        {
          "internalType": "address",
          "name": "operator",
          "type": "address"
        }
      ],
      "name": "isApprovedForAll",
      "outputs": [
        {
          "internalType": "bool",
          "name": "",
          "type": "bool"
        }
      ],
      "stateMutability": "view",
      "type": "function"
    },
    {
      "inputs": [],
      "name": "maxSupply",
      "outputs": [
        {
          "internalType": "uint256",
          "name": "",
          "type": "uint256"
        }
      ],
      "stateMutability": "view",
      "type": "function"
    },
    {
      "inputs": [],
      "name": "mint",
      "outputs": [],
      "stateMutability": "nonpayable",
      "type": "function"
    },
    {
      "inputs": [],
      "name": "name",
      "outputs": [
        {
          "internalType": "string",
          "name": "",
          "type": "string"
        }
      ],
      "stateMutability": "view",
      "type": "function"
    },
    {
      "inputs": [
        {
          "internalType": "uint256",
          "name": "tokenId",
          "type": "uint256"
        }
      ],
      "name": "ownerOf",
      "outputs": [
        {
          "internalType": "address",
          "name": "",
          "type": "address"
        }
      ],
      "stateMutability": "view",
      "type": "function"
    },
    {
      "inputs": [
        {
          "internalType": "address",
          "name": "from",
          "type": "address"
        },
        {
          "internalType": "address",
          "name": "to",
          "type": "address"
        },
        {
          "internalType": "uint256",
          "name": "tokenId",
          "type": "uint256"
        }
      ],
      "name": "safeTransferFrom",
      "outputs": [],
      "stateMutability": "nonpayable",
      "type": "function"
    },
    {
      "inputs": [
        {
          "internalType": "address",
          "name": "from",
          "type": "address"
        },
        {
          "internalType": "address",
          "name": "to",
          "type": "address"
        },
        {
          "internalType": "uint256",
          "name": "tokenId",
          "type": "uint256"
        },
        {
          "internalType": "bytes",
          "name": "_data",
          "type": "bytes"
        }
      ],
      "name": "safeTransferFrom",
      "outputs": [],
      "stateMutability": "nonpayable",
      "type": "function"
    },
    {
      "inputs": [
        {
          "internalType": "address",
          "name": "operator",
          "type": "address"
        },
        {
          "internalType": "bool",
          "name": "approved",
          "type": "bool"
        }
      ],
      "name": "setApprovalForAll",
      "outputs": [],
      "stateMutability": "nonpayable",
      "type": "function"
    },
    {
      "inputs": [
        {
          "internalType": "bytes4",
          "name": "interfaceId",
          "type": "bytes4"
        }
      ],
      "name": "supportsInterface",
      "outputs": [
        {
          "internalType": "bool",
          "name": "",
          "type": "bool"
        }
      ],
      "stateMutability": "view",
      "type": "function"
    },
    {
      "inputs": [],
      "name": "symbol",
      "outputs": [
        {
          "internalType": "string",
          "name": "",
          "type": "string"
        }
      ],
      "stateMutability": "view",
      "type": "function"
    },
    {
      "inputs": [
        {
          "internalType": "uint256",
          "name": "index",
          "type": "uint256"
        }
      ],
      "name": "tokenByIndex",
      "outputs": [
        {
          "internalType": "uint256",
          "name": "",
          "type": "uint256"
        }
      ],
      "stateMutability": "view",
      "type": "function"
    },
    {
      "inputs": [
        {
          "internalType": "uint256",
          "name": "",
          "type": "uint256"
        }
      ],
      "name": "tokenDNA",
      "outputs": [
        {
          "internalType": "uint256",
          "name": "",
          "type": "uint256"
        }
      ],
      "stateMutability": "view",
      "type": "function"
    },
    {
      "inputs": [
        {
          "internalType": "address",
          "name": "owner",
          "type": "address"
        },
        {
          "internalType": "uint256",
          "name": "index",
          "type": "uint256"
        }
      ],
      "name": "tokenOfOwnerByIndex",
      "outputs": [
        {
          "internalType": "uint256",
          "name": "",
          "type": "uint256"
        }
      ],
      "stateMutability": "view",
      "type": "function"
    },
    {
      "inputs": [
        {
          "internalType": "uint256",
          "name": "tokenId",
          "type": "uint256"
        }
      ],
      "name": "tokenURI",
      "outputs": [
        {
          "internalType": "string",
          "name": "",
          "type": "string"
        }
      ],
      "stateMutability": "view",
      "type": "function"
    },
    {
      "inputs": [],
      "name": "totalSupply",
      "outputs": [
        {
          "internalType": "uint256",
          "name": "",
          "type": "uint256"
        }
      ],
      "stateMutability": "view",
      "type": "function"
    },
    {
      "inputs": [
        {
          "internalType": "address",
          "name": "from",
          "type": "address"
        },
        {
          "internalType": "address",
          "name": "to",
          "type": "address"
        },
        {
          "internalType": "uint256",
          "name": "tokenId",
          "type": "uint256"
        }
      ],
      "name": "transferFrom",
      "outputs": [],
      "stateMutability": "nonpayable",
      "type": "function"
    }
  ],
  "bytecode": "0x60806040526040518060e001604052806040518060400160405280600581526020017f426c616e6b00000000000000000000000000000000000000000000000000000081525081526020016040518060400160405280600481526020017f4b7572740000000000000000000000000000000000000000000000000000000081525081526020016040518060400160405280600e81526020017f507265736372697074696f6e303100000000000000000000000000000000000081525081526020016040518060400160405280600e81526020017f507265736372697074696f6e303200000000000000000000000000000000000081525081526020016040518060400160405280600581526020017f526f756e6400000000000000000000000000000000000000000000000000000081525081526020016040518060400160405280600a81526020017f53756e676c61737365730000000000000000000000000000000000000000000081525081526020016040518060400160405280600981526020017f5761796661726572730000000000000000000000000000000000000000000000815250815250600a906007620001bc92919062002700565b50604051806101e001604052806040518060400160405280600581526020017f426c61636b00000000000000000000000000000000000000000000000000000081525081526020016040518060400160405280600681526020017f426c75653031000000000000000000000000000000000000000000000000000081525081526020016040518060400160405280600681526020017f426c75653032000000000000000000000000000000000000000000000000000081525081526020016040518060400160405280600681526020017f426c75653033000000000000000000000000000000000000000000000000000081525081526020016040518060400160405280600681526020017f477261793031000000000000000000000000000000000000000000000000000081525081526020016040518060400160405280600681526020017f477261793032000000000000000000000000000000000000000000000000000081525081526020016040518060400160405280600781526020017f486561746865720000000000000000000000000000000000000000000000000081525081526020016040518060400160405280600a81526020017f50617374656c426c75650000000000000000000000000000000000000000000081525081526020016040518060400160405280600b81526020017f50617374656c477265656e00000000000000000000000000000000000000000081525081526020016040518060400160405280600c81526020017f50617374656c4f72616e6765000000000000000000000000000000000000000081525081526020016040518060400160405280600981526020017f50617374656c526564000000000000000000000000000000000000000000000081525081526020016040518060400160405280600c81526020017f50617374656c59656c6c6f77000000000000000000000000000000000000000081525081526020016040518060400160405280600481526020017f50696e6b0000000000000000000000000000000000000000000000000000000081525081526020016040518060400160405280600381526020017f526564000000000000000000000000000000000000000000000000000000000081525081526020016040518060400160405280600581526020017f5768697465000000000000000000000000000000000000000000000000000000815250815250600b90600f6200054e92919062002767565b506040518061012001604052806040518060400160405280600b81526020017f426c617a6572536869727400000000000000000000000000000000000000000081525081526020016040518060400160405280600d81526020017f426c617a6572537765617465720000000000000000000000000000000000000081525081526020016040518060400160405280600d81526020017f436f6c6c6172537765617465720000000000000000000000000000000000000081525081526020016040518060400160405280600c81526020017f477261706869635368697274000000000000000000000000000000000000000081525081526020016040518060400160405280600681526020017f486f6f646965000000000000000000000000000000000000000000000000000081525081526020016040518060400160405280600781526020017f4f766572616c6c0000000000000000000000000000000000000000000000000081525081526020016040518060400160405280600d81526020017f5368697274437265774e65636b0000000000000000000000000000000000000081525081526020016040518060400160405280600e81526020017f536869727453636f6f704e65636b00000000000000000000000000000000000081525081526020016040518060400160405280600a81526020017f5368697274564e65636b00000000000000000000000000000000000000000000815250815250600c9060096200077e929190620027ce565b506040518061018001604052806040518060400160405280600581526020017f436c6f736500000000000000000000000000000000000000000000000000000081525081526020016040518060400160405280600381526020017f437279000000000000000000000000000000000000000000000000000000000081525081526020016040518060400160405280600781526020017f44656661756c740000000000000000000000000000000000000000000000000081525081526020016040518060400160405280600581526020017f44697a7a7900000000000000000000000000000000000000000000000000000081525081526020016040518060400160405280600781526020017f457965526f6c6c0000000000000000000000000000000000000000000000000081525081526020016040518060400160405280600581526020017f486170707900000000000000000000000000000000000000000000000000000081525081526020016040518060400160405280600681526020017f486561727473000000000000000000000000000000000000000000000000000081525081526020016040518060400160405280600481526020017f536964650000000000000000000000000000000000000000000000000000000081525081526020016040518060400160405280600681526020017f537175696e74000000000000000000000000000000000000000000000000000081525081526020016040518060400160405280600981526020017f537572707269736564000000000000000000000000000000000000000000000081525081526020016040518060400160405280600481526020017f57696e6b0000000000000000000000000000000000000000000000000000000081525081526020016040518060400160405280600981526020017f57696e6b5761636b790000000000000000000000000000000000000000000000815250815250600d90600c62000a5f92919062002835565b506040518061018001604052806040518060400160405280600581526020017f416e67727900000000000000000000000000000000000000000000000000000081525081526020016040518060400160405280600c81526020017f416e6772794e61747572616c000000000000000000000000000000000000000081525081526020016040518060400160405280600781526020017f44656661756c740000000000000000000000000000000000000000000000000081525081526020016040518060400160405280600e81526020017f44656661756c744e61747572616c00000000000000000000000000000000000081525081526020016040518060400160405280600b81526020017f466c61744e61747572616c00000000000000000000000000000000000000000081525081526020016040518060400160405280600d81526020017f526169736564457863697465640000000000000000000000000000000000000081525081526020016040518060400160405280601481526020017f526169736564457863697465644e61747572616c00000000000000000000000081525081526020016040518060400160405280600c81526020017f536164436f6e6365726e6564000000000000000000000000000000000000000081525081526020016040518060400160405280601381526020017f536164436f6e6365726e65644e61747572616c0000000000000000000000000081525081526020016040518060400160405280600e81526020017f556e6962726f774e61747572616c00000000000000000000000000000000000081525081526020016040518060400160405280600681526020017f5570446f776e000000000000000000000000000000000000000000000000000081525081526020016040518060400160405280600d81526020017f5570446f776e4e61747572616c00000000000000000000000000000000000000815250815250600e90600c62000d4092919062002835565b506040518061010001604052806040518060400160405280600681526020017f41756275726e000000000000000000000000000000000000000000000000000081525081526020016040518060400160405280600581526020017f426c61636b00000000000000000000000000000000000000000000000000000081525081526020016040518060400160405280600681526020017f426c6f6e6465000000000000000000000000000000000000000000000000000081525081526020016040518060400160405280600c81526020017f426c6f6e6465476f6c64656e000000000000000000000000000000000000000081525081526020016040518060400160405280600581526020017f42726f776e00000000000000000000000000000000000000000000000000000081525081526020016040518060400160405280600981526020017f42726f776e4461726b000000000000000000000000000000000000000000000081525081526020016040518060400160405280600881526020017f506c6174696e756d00000000000000000000000000000000000000000000000081525081526020016040518060400160405280600381526020017f5265640000000000000000000000000000000000000000000000000000000000815250815250600f90600862000f359291906200289c565b506040518060c001604052806040518060400160405280600581526020017f426c616e6b00000000000000000000000000000000000000000000000000000081525081526020016040518060400160405280600b81526020017f42656172644d656469756d00000000000000000000000000000000000000000081525081526020016040518060400160405280600a81526020017f42656172644c696768740000000000000000000000000000000000000000000081525081526020016040518060400160405280600d81526020017f42656172644d616765737469630000000000000000000000000000000000000081525081526020016040518060400160405280600e81526020017f4d6f7573746163686546616e637900000000000000000000000000000000000081525081526020016040518060400160405280600f81526020017f4d6f757374616368654d61676e756d00000000000000000000000000000000008152508152506010906006620010b392919062002903565b506040518061014001604052806040518060400160405280600681526020017f41756275726e000000000000000000000000000000000000000000000000000081525081526020016040518060400160405280600581526020017f426c61636b00000000000000000000000000000000000000000000000000000081525081526020016040518060400160405280600681526020017f426c6f6e6465000000000000000000000000000000000000000000000000000081525081526020016040518060400160405280600c81526020017f426c6f6e6465476f6c64656e000000000000000000000000000000000000000081525081526020016040518060400160405280600581526020017f42726f776e00000000000000000000000000000000000000000000000000000081525081526020016040518060400160405280600981526020017f42726f776e4461726b000000000000000000000000000000000000000000000081525081526020016040518060400160405280600a81526020017f50617374656c50696e6b0000000000000000000000000000000000000000000081525081526020016040518060400160405280600881526020017f506c6174696e756d00000000000000000000000000000000000000000000000081525081526020016040518060400160405280600381526020017f526564000000000000000000000000000000000000000000000000000000000081525081526020016040518060400160405280600a81526020017f53696c7665724772617900000000000000000000000000000000000000000000815250815250601190600a6200131e9291906200296a565b50604051806101e001604052806040518060400160405280600581526020017f426c61636b00000000000000000000000000000000000000000000000000000081525081526020016040518060400160405280600681526020017f426c75653031000000000000000000000000000000000000000000000000000081525081526020016040518060400160405280600681526020017f426c75653032000000000000000000000000000000000000000000000000000081525081526020016040518060400160405280600681526020017f426c75653033000000000000000000000000000000000000000000000000000081525081526020016040518060400160405280600681526020017f477261793031000000000000000000000000000000000000000000000000000081525081526020016040518060400160405280600681526020017f477261793032000000000000000000000000000000000000000000000000000081525081526020016040518060400160405280600781526020017f486561746865720000000000000000000000000000000000000000000000000081525081526020016040518060400160405280600a81526020017f50617374656c426c75650000000000000000000000000000000000000000000081525081526020016040518060400160405280600b81526020017f50617374656c477265656e00000000000000000000000000000000000000000081525081526020016040518060400160405280600c81526020017f50617374656c4f72616e6765000000000000000000000000000000000000000081525081526020016040518060400160405280600981526020017f50617374656c526564000000000000000000000000000000000000000000000081525081526020016040518060400160405280600c81526020017f50617374656c59656c6c6f77000000000000000000000000000000000000000081525081526020016040518060400160405280600481526020017f50696e6b0000000000000000000000000000000000000000000000000000000081525081526020016040518060400160405280600381526020017f526564000000000000000000000000000000000000000000000000000000000081525081526020016040518060400160405280600581526020017f5768697465000000000000000000000000000000000000000000000000000000815250815250601290600f620016b092919062002767565b506040518061016001604052806040518060400160405280600381526020017f426174000000000000000000000000000000000000000000000000000000000081525081526020016040518060400160405280600681526020017f43756d626961000000000000000000000000000000000000000000000000000081525081526020016040518060400160405280600481526020017f446565720000000000000000000000000000000000000000000000000000000081525081526020016040518060400160405280600781526020017f4469616d6f6e640000000000000000000000000000000000000000000000000081525081526020016040518060400160405280600481526020017f486f6c610000000000000000000000000000000000000000000000000000000081525081526020016040518060400160405280600581526020017f50697a7a6100000000000000000000000000000000000000000000000000000081525081526020016040518060400160405280600681526020017f526573697374000000000000000000000000000000000000000000000000000081525081526020016040518060400160405280600681526020017f53656c656e61000000000000000000000000000000000000000000000000000081525081526020016040518060400160405280600481526020017f426561720000000000000000000000000000000000000000000000000000000081525081526020016040518060400160405280600c81526020017f536b756c6c4f75746c696e65000000000000000000000000000000000000000081525081526020016040518060400160405280600581526020017f536b756c6c000000000000000000000000000000000000000000000000000000815250815250601390600b62001956929190620029d1565b506040518061018001604052806040518060400160405280600981526020017f436f6e6365726e6564000000000000000000000000000000000000000000000081525081526020016040518060400160405280600781526020017f44656661756c740000000000000000000000000000000000000000000000000081525081526020016040518060400160405280600981526020017f44697362656c696566000000000000000000000000000000000000000000000081525081526020016040518060400160405280600681526020017f456174696e67000000000000000000000000000000000000000000000000000081525081526020016040518060400160405280600781526020017f4772696d6163650000000000000000000000000000000000000000000000000081525081526020016040518060400160405280600381526020017f536164000000000000000000000000000000000000000000000000000000000081525081526020016040518060400160405280600a81526020017f53637265616d4f70656e0000000000000000000000000000000000000000000081525081526020016040518060400160405280600781526020017f536572696f75730000000000000000000000000000000000000000000000000081525081526020016040518060400160405280600581526020017f536d696c6500000000000000000000000000000000000000000000000000000081525081526020016040518060400160405280600681526020017f546f6e677565000000000000000000000000000000000000000000000000000081525081526020016040518060400160405280600781526020017f5477696e6b6c650000000000000000000000000000000000000000000000000081525081526020016040518060400160405280600581526020017f566f6d6974000000000000000000000000000000000000000000000000000000815250815250601490600c62001c3792919062002835565b506040518060e001604052806040518060400160405280600681526020017f54616e6e6564000000000000000000000000000000000000000000000000000081525081526020016040518060400160405280600681526020017f59656c6c6f77000000000000000000000000000000000000000000000000000081525081526020016040518060400160405280600481526020017f50616c650000000000000000000000000000000000000000000000000000000081525081526020016040518060400160405280600581526020017f4c6967687400000000000000000000000000000000000000000000000000000081525081526020016040518060400160405280600581526020017f42726f776e00000000000000000000000000000000000000000000000000000081525081526020016040518060400160405280600981526020017f4461726b42726f776e000000000000000000000000000000000000000000000081525081526020016040518060400160405280600581526020017f426c61636b000000000000000000000000000000000000000000000000000000815250815250601590600762001df092919062002700565b506040518061046001604052806040518060400160405280600681526020017f4e6f48616972000000000000000000000000000000000000000000000000000081525081526020016040518060400160405280600881526020017f457965706174636800000000000000000000000000000000000000000000000081525081526020016040518060400160405280600381526020017f486174000000000000000000000000000000000000000000000000000000000081525081526020016040518060400160405280600581526020017f48696a616200000000000000000000000000000000000000000000000000000081525081526020016040518060400160405280600681526020017f54757262616e000000000000000000000000000000000000000000000000000081525081526020016040518060400160405280600a81526020017f57696e746572486174310000000000000000000000000000000000000000000081525081526020016040518060400160405280600a81526020017f57696e746572486174320000000000000000000000000000000000000000000081525081526020016040518060400160405280600a81526020017f57696e746572486174330000000000000000000000000000000000000000000081525081526020016040518060400160405280600a81526020017f57696e746572486174340000000000000000000000000000000000000000000081525081526020016040518060400160405280600f81526020017f4c6f6e674861697242696748616972000000000000000000000000000000000081525081526020016040518060400160405280600b81526020017f4c6f6e6748616972426f6200000000000000000000000000000000000000000081525081526020016040518060400160405280600b81526020017f4c6f6e674861697242756e00000000000000000000000000000000000000000081525081526020016040518060400160405280600d81526020017f4c6f6e67486169724375726c790000000000000000000000000000000000000081525081526020016040518060400160405280600d81526020017f4c6f6e674861697243757276790000000000000000000000000000000000000081525081526020016040518060400160405280600e81526020017f4c6f6e674861697244726561647300000000000000000000000000000000000081525081526020016040518060400160405280600d81526020017f4c6f6e674861697246726964610000000000000000000000000000000000000081525081526020016040518060400160405280600b81526020017f4c6f6e674861697246726f00000000000000000000000000000000000000000081525081526020016040518060400160405280600f81526020017f4c6f6e674861697246726f42616e64000000000000000000000000000000000081525081526020016040518060400160405280601281526020017f4c6f6e67486169724e6f74546f6f4c6f6e67000000000000000000000000000081525081526020016040518060400160405280601381526020017f4c6f6e674861697253686176656453696465730000000000000000000000000081525081526020016040518060400160405280601281526020017f4c6f6e67486169724d696157616c6c616365000000000000000000000000000081525081526020016040518060400160405280601081526020017f4c6f6e674861697253747261696768740000000000000000000000000000000081525081526020016040518060400160405280601181526020017f4c6f6e674861697253747261696768743200000000000000000000000000000081525081526020016040518060400160405280601681526020017f4c6f6e67486169725374726169676874537472616e640000000000000000000081525081526020016040518060400160405280601181526020017f53686f727448616972447265616473303100000000000000000000000000000081525081526020016040518060400160405280601181526020017f53686f727448616972447265616473303200000000000000000000000000000081525081526020016040518060400160405280601081526020017f53686f7274486169724672697a7a6c650000000000000000000000000000000081525081526020016040518060400160405280601581526020017f53686f7274486169725368616767794d756c6c6574000000000000000000000081525081526020016040518060400160405280601381526020017f53686f72744861697253686f72744375726c790000000000000000000000000081525081526020016040518060400160405280601281526020017f53686f72744861697253686f7274466c6174000000000000000000000000000081525081526020016040518060400160405280601381526020017f53686f72744861697253686f7274526f756e640000000000000000000000000081525081526020016040518060400160405280601381526020017f53686f72744861697253686f727457617665640000000000000000000000000081525081526020016040518060400160405280600e81526020017f53686f727448616972536964657300000000000000000000000000000000000081525081526020016040518060400160405280601281526020017f53686f727448616972546865436165736172000000000000000000000000000081525081526020016040518060400160405280601a81526020017f53686f727448616972546865436165736172536964655061727400000000000081525081525060169060236200261e92919062002a38565b503480156200262c57600080fd5b5060405162007c0538038062007c05833981810160405281019062002652919062002bd4565b6040518060400160405280600b81526020017f506c61747a6950756e6b730000000000000000000000000000000000000000008152506040518060400160405280600581526020017f504c504b530000000000000000000000000000000000000000000000000000008152508160009080519060200190620026d692919062002a9f565b508060019080519060200190620026ef92919062002a9f565b505050806018819055505062002c89565b82805482825590600052602060002090810192821562002754579160200282015b82811115620027535782518290805190602001906200274292919062002a9f565b509160200191906001019062002721565b5b50905062002763919062002b30565b5090565b828054828255906000526020600020908101928215620027bb579160200282015b82811115620027ba578251829080519060200190620027a992919062002a9f565b509160200191906001019062002788565b5b509050620027ca919062002b30565b5090565b82805482825590600052602060002090810192821562002822579160200282015b82811115620028215782518290805190602001906200281092919062002a9f565b5091602001919060010190620027ef565b5b50905062002831919062002b30565b5090565b82805482825590600052602060002090810192821562002889579160200282015b82811115620028885782518290805190602001906200287792919062002a9f565b509160200191906001019062002856565b5b50905062002898919062002b30565b5090565b828054828255906000526020600020908101928215620028f0579160200282015b82811115620028ef578251829080519060200190620028de92919062002a9f565b5091602001919060010190620028bd565b5b509050620028ff919062002b30565b5090565b82805482825590600052602060002090810192821562002957579160200282015b82811115620029565782518290805190602001906200294592919062002a9f565b509160200191906001019062002924565b5b50905062002966919062002b30565b5090565b828054828255906000526020600020908101928215620029be579160200282015b82811115620029bd578251829080519060200190620029ac92919062002a9f565b50916020019190600101906200298b565b5b509050620029cd919062002b30565b5090565b82805482825590600052602060002090810192821562002a25579160200282015b8281111562002a2457825182908051906020019062002a1392919062002a9f565b5091602001919060010190620029f2565b5b50905062002a34919062002b30565b5090565b82805482825590600052602060002090810192821562002a8c579160200282015b8281111562002a8b57825182908051906020019062002a7a92919062002a9f565b509160200191906001019062002a59565b5b50905062002a9b919062002b30565b5090565b82805462002aad9062002c0a565b90600052602060002090601f01602090048101928262002ad1576000855562002b1d565b82601f1062002aec57805160ff191683800117855562002b1d565b8280016001018555821562002b1d579182015b8281111562002b1c57825182559160200191906001019062002aff565b5b50905062002b2c919062002b58565b5090565b5b8082111562002b54576000818162002b4a919062002b77565b5060010162002b31565b5090565b5b8082111562002b7357600081600090555060010162002b59565b5090565b50805462002b859062002c0a565b6000825580601f1062002b99575062002bba565b601f01602090049060005260206000209081019062002bb9919062002b58565b5b50565b60008151905062002bce8162002c6f565b92915050565b60006020828403121562002be757600080fd5b600062002bf78482850162002bbd565b91505092915050565b6000819050919050565b6000600282049050600182168062002c2357607f821691505b6020821081141562002c3a5762002c3962002c40565b5b50919050565b7f4e487b7100000000000000000000000000000000000000000000000000000000600052602260045260246000fd5b62002c7a8162002c00565b811462002c8657600080fd5b50565b614f6c8062002c996000396000f3fe608060405234801561001057600080fd5b50600436106102065760003560e01c80637ecaef061161011a578063b88d4fde116100ad578063cc4e56951161007c578063cc4e5695146106bb578063d5abeb01146106eb578063dac1419e14610709578063e2eced2814610739578063e985e9c51461076957610206565b8063b88d4fde1461060f578063be65d7511461062b578063c0496cf51461065b578063c87b56dd1461068b57610206565b806395d89b41116100e957806395d89b4114610575578063a22cb46514610593578063a2ec3e9e146105af578063b70930de146105df57610206565b80637ecaef06146104b557806384425a84146104e55780638602dd6a1461051557806388ee2c161461054557610206565b806323b872dd1161019d5780634f6ccce71161016c5780634f6ccce7146103c557806360d58aed146103f55780636352211e1461042557806370a082311461045557806373075aff1461048557610206565b806323b872dd1461032d5780632f745c5914610349578063425d784f1461037957806342842e0e146103a957610206565b8063095ea7b3116101d9578063095ea7b3146102b95780631249c58b146102d557806318160ddd146102df57806318a3c0d1146102fd57610206565b806301ffc9a71461020b578063039984ba1461023b57806306fdde031461026b578063081812fc14610289575b600080fd5b61022560048036038101906102209190613575565b610799565b6040516102329190613e4d565b60405180910390f35b610255600480360381019061025091906135c7565b6107ab565b6040516102629190613e68565b60405180910390f35b6102736108a3565b6040516102809190613e68565b60405180910390f35b6102a3600480360381019061029e91906135c7565b610935565b6040516102b09190613de6565b60405180910390f35b6102d360048036038101906102ce9190613539565b6109ba565b005b6102dd610ad2565b005b6102e7610b5c565b6040516102f491906140aa565b60405180910390f35b610317600480360381019061031291906135c7565b610b69565b6040516103249190613e68565b60405180910390f35b61034760048036038101906103429190613433565b610c61565b005b610363600480360381019061035e9190613539565b610cc1565b60405161037091906140aa565b60405180910390f35b610393600480360381019061038e91906135c7565b610d66565b6040516103a09190613e68565b60405180910390f35b6103c360048036038101906103be9190613433565b610e5e565b005b6103df60048036038101906103da91906135c7565b610e7e565b6040516103ec91906140aa565b60405180910390f35b61040f600480360381019061040a91906135c7565b610f15565b60405161041c9190613e68565b60405180910390f35b61043f600480360381019061043a91906135c7565b61100d565b60405161044c9190613de6565b60405180910390f35b61046f600480360381019061046a91906133ce565b6110bf565b60405161047c91906140aa565b60405180910390f35b61049f600480360381019061049a91906135c7565b611177565b6040516104ac9190613e68565b60405180910390f35b6104cf60048036038101906104ca91906135c7565b61126f565b6040516104dc9190613e68565b60405180910390f35b6104ff60048036038101906104fa91906135c7565b611367565b60405161050c9190613e68565b60405180910390f35b61052f600480360381019061052a91906135c7565b61145f565b60405161053c9190613e68565b60405180910390f35b61055f600480360381019061055a91906135f0565b611557565b60405161056c91906140aa565b60405180910390f35b61057d6115bd565b60405161058a9190613e68565b60405180910390f35b6105ad60048036038101906105a891906134fd565b61164f565b005b6105c960048036038101906105c491906135c7565b611665565b6040516105d69190613e68565b60405180910390f35b6105f960048036038101906105f491906135c7565b61175d565b6040516106069190613e68565b60405180910390f35b61062960048036038101906106249190613482565b611855565b005b610645600480360381019061064091906135c7565b6118b7565b60405161065291906140aa565b60405180910390f35b610675600480360381019061067091906135c7565b6118cf565b6040516106829190613e68565b60405180910390f35b6106a560048036038101906106a091906135c7565b6119c7565b6040516106b29190613e68565b60405180910390f35b6106d560048036038101906106d091906135c7565b611a96565b6040516106e29190613e68565b60405180910390f35b6106f3611b8e565b60405161070091906140aa565b60405180910390f35b610723600480360381019061071e91906135c7565b611b94565b6040516107309190613e68565b60405180910390f35b610753600480360381019061074e91906135c7565b611c8c565b6040516107609190613e68565b60405180910390f35b610783600480360381019061077e91906133f7565b611cd2565b6040516107909190613e4d565b60405180910390f35b60006107a482611d66565b9050919050565b606060006107ba836008611de0565b60ff169050600e8080549050826107d19190614594565b81548110610808577f4e487b7100000000000000000000000000000000000000000000000000000000600052603260045260246000fd5b90600052602060002001805461081d906144de565b80601f0160208091040260200160405190810160405280929190818152602001828054610849906144de565b80156108965780601f1061086b57610100808354040283529160200191610896565b820191906000526020600020905b81548152906001019060200180831161087957829003601f168201915b5050505050915050919050565b6060600080546108b2906144de565b80601f01602080910402602001604051908101604052809291908181526020018280546108de906144de565b801561092b5780601f106109005761010080835404028352916020019161092b565b820191906000526020600020905b81548152906001019060200180831161090e57829003601f168201915b5050505050905090565b600061094082611e3d565b61097f576040517f08c379a00000000000000000000000000000000000000000000000000000000081526004016109769061400a565b60405180910390fd5b6004600083815260200190815260200160002060009054906101000a900473ffffffffffffffffffffffffffffffffffffffff169050919050565b60006109c58261100d565b90508073ffffffffffffffffffffffffffffffffffffffff168373ffffffffffffffffffffffffffffffffffffffff161415610a36576040517f08c379a0000000000000000000000000000000000000000000000000000000008152600401610a2d9061402a565b60405180910390fd5b8073ffffffffffffffffffffffffffffffffffffffff16610a55611ea9565b73ffffffffffffffffffffffffffffffffffffffff161480610a845750610a8381610a7e611ea9565b611cd2565b5b610ac3576040517f08c379a0000000000000000000000000000000000000000000000000000000008152600401610aba90613f6a565b60405180910390fd5b610acd8383611eb1565b505050565b6000610ade6017611f6a565b90506018548110610b24576040517f08c379a0000000000000000000000000000000000000000000000000000000008152600401610b1b90613fea565b60405180910390fd5b610b2e8133611557565b6019600083815260200190815260200160002081905550610b4f3382611f78565b610b596017611f96565b50565b6000600880549050905090565b60606000610b78836004611de0565b60ff169050600c808054905082610b8f9190614594565b81548110610bc6577f4e487b7100000000000000000000000000000000000000000000000000000000600052603260045260246000fd5b906000526020600020018054610bdb906144de565b80601f0160208091040260200160405190810160405280929190818152602001828054610c07906144de565b8015610c545780601f10610c2957610100808354040283529160200191610c54565b820191906000526020600020905b815481529060010190602001808311610c3757829003601f168201915b5050505050915050919050565b610c72610c6c611ea9565b82611fac565b610cb1576040517f08c379a0000000000000000000000000000000000000000000000000000000008152600401610ca89061404a565b60405180910390fd5b610cbc83838361208a565b505050565b6000610ccc836110bf565b8210610d0d576040517f08c379a0000000000000000000000000000000000000000000000000000000008152600401610d0490613e8a565b60405180910390fd5b600660008473ffffffffffffffffffffffffffffffffffffffff1673ffffffffffffffffffffffffffffffffffffffff168152602001908152602001600020600083815260200190815260200160002054905092915050565b60606000610d75836014611de0565b60ff1690506014808054905082610d8c9190614594565b81548110610dc3577f4e487b7100000000000000000000000000000000000000000000000000000000600052603260045260246000fd5b906000526020600020018054610dd8906144de565b80601f0160208091040260200160405190810160405280929190818152602001828054610e04906144de565b8015610e515780601f10610e2657610100808354040283529160200191610e51565b820191906000526020600020905b815481529060010190602001808311610e3457829003601f168201915b5050505050915050919050565b610e7983838360405180602001604052806000815250611855565b505050565b6000610e88610b5c565b8210610ec9576040517f08c379a0000000000000000000000000000000000000000000000000000000008152600401610ec09061406a565b60405180910390fd5b60088281548110610f03577f4e487b7100000000000000000000000000000000000000000000000000000000600052603260045260246000fd5b90600052602060002001549050919050565b60606000610f24836018611de0565b60ff1690506016808054905082610f3b9190614594565b81548110610f72577f4e487b7100000000000000000000000000000000000000000000000000000000600052603260045260246000fd5b906000526020600020018054610f87906144de565b80601f0160208091040260200160405190810160405280929190818152602001828054610fb3906144de565b80156110005780601f10610fd557610100808354040283529160200191611000565b820191906000526020600020905b815481529060010190602001808311610fe357829003601f168201915b5050505050915050919050565b6000806002600084815260200190815260200160002060009054906101000a900473ffffffffffffffffffffffffffffffffffffffff169050600073ffffffffffffffffffffffffffffffffffffffff168173ffffffffffffffffffffffffffffffffffffffff1614156110b6576040517f08c379a00000000000000000000000000000000000000000000000000000000081526004016110ad90613faa565b60405180910390fd5b80915050919050565b60008073ffffffffffffffffffffffffffffffffffffffff168273ffffffffffffffffffffffffffffffffffffffff161415611130576040517f08c379a000000000000000000000000000000000000000000000000000000000815260040161112790613f8a565b60405180910390fd5b600360008373ffffffffffffffffffffffffffffffffffffffff1673ffffffffffffffffffffffffffffffffffffffff168152602001908152602001600020549050919050565b60606000611186836016611de0565b60ff169050601580805490508261119d9190614594565b815481106111d4577f4e487b7100000000000000000000000000000000000000000000000000000000600052603260045260246000fd5b9060005260206000200180546111e9906144de565b80601f0160208091040260200160405190810160405280929190818152602001828054611215906144de565b80156112625780601f1061123757610100808354040283529160200191611262565b820191906000526020600020905b81548152906001019060200180831161124557829003601f168201915b5050505050915050919050565b6060600061127e836000611de0565b9050600a80805490508260ff166112959190614594565b815481106112cc577f4e487b7100000000000000000000000000000000000000000000000000000000600052603260045260246000fd5b9060005260206000200180546112e1906144de565b80601f016020809104026020016040519081016040528092919081815260200182805461130d906144de565b801561135a5780601f1061132f5761010080835404028352916020019161135a565b820191906000526020600020905b81548152906001019060200180831161133d57829003601f168201915b5050505050915050919050565b60606000611376836006611de0565b60ff169050600d80805490508261138d9190614594565b815481106113c4577f4e487b7100000000000000000000000000000000000000000000000000000000600052603260045260246000fd5b9060005260206000200180546113d9906144de565b80601f0160208091040260200160405190810160405280929190818152602001828054611405906144de565b80156114525780601f1061142757610100808354040283529160200191611452565b820191906000526020600020905b81548152906001019060200180831161143557829003601f168201915b5050505050915050919050565b6060600061146e836012611de0565b60ff16905060138080549050826114859190614594565b815481106114bc577f4e487b7100000000000000000000000000000000000000000000000000000000600052603260045260246000fd5b9060005260206000200180546114d1906144de565b80601f01602080910402602001604051908101604052809291908181526020018280546114fd906144de565b801561154a5780601f1061151f5761010080835404028352916020019161154a565b820191906000526020600020905b81548152906001019060200180831161152d57829003601f168201915b5050505050915050919050565b6000808273ffffffffffffffffffffffffffffffffffffffff168461157c919061415e565b90506000816040516020016115919190613dcb565b60405160208183030381529060405290506000818051906020012090508060001c935050505092915050565b6060600180546115cc906144de565b80601f01602080910402602001604051908101604052809291908181526020018280546115f8906144de565b80156116455780601f1061161a57610100808354040283529160200191611645565b820191906000526020600020905b81548152906001019060200180831161162857829003601f168201915b5050505050905090565b61166161165a611ea9565b83836122f1565b5050565b60606000611674836010611de0565b60ff169050601280805490508261168b9190614594565b815481106116c2577f4e487b7100000000000000000000000000000000000000000000000000000000600052603260045260246000fd5b9060005260206000200180546116d7906144de565b80601f0160208091040260200160405190810160405280929190818152602001828054611703906144de565b80156117505780601f1061172557610100808354040283529160200191611750565b820191906000526020600020905b81548152906001019060200180831161173357829003601f168201915b5050505050915050919050565b6060600061176c83600e611de0565b60ff16905060118080549050826117839190614594565b815481106117ba577f4e487b7100000000000000000000000000000000000000000000000000000000600052603260045260246000fd5b9060005260206000200180546117cf906144de565b80601f01602080910402602001604051908101604052809291908181526020018280546117fb906144de565b80156118485780601f1061181d57610100808354040283529160200191611848565b820191906000526020600020905b81548152906001019060200180831161182b57829003601f168201915b5050505050915050919050565b611866611860611ea9565b83611fac565b6118a5576040517f08c379a000000000000000000000000000000000000000000000000000000000815260040161189c9061404a565b60405180910390fd5b6118b18484848461245e565b50505050565b60196020528060005260406000206000915090505481565b606060006118de836002611de0565b9050600b80805490508260ff166118f59190614594565b8154811061192c577f4e487b7100000000000000000000000000000000000000000000000000000000600052603260045260246000fd5b906000526020600020018054611941906144de565b80601f016020809104026020016040519081016040528092919081815260200182805461196d906144de565b80156119ba5780601f1061198f576101008083540402835291602001916119ba565b820191906000526020600020905b81548152906001019060200180831161199d57829003601f168201915b5050505050915050919050565b60606119d282611e3d565b611a11576040517f08c379a0000000000000000000000000000000000000000000000000000000008152600401611a089061408a565b60405180910390fd5b6000601960008481526020019081526020016000205490506000611a3482611c8c565b90506000611a6a611a44866124ba565b83604051602001611a56929190613c3a565b604051602081830303815290604052612667565b905080604051602001611a7d9190613da9565b6040516020818303038152906040529350505050919050565b60606000611aa583600a611de0565b60ff169050600f808054905082611abc9190614594565b81548110611af3577f4e487b7100000000000000000000000000000000000000000000000000000000600052603260045260246000fd5b906000526020600020018054611b08906144de565b80601f0160208091040260200160405190810160405280929190818152602001828054611b34906144de565b8015611b815780601f10611b5657610100808354040283529160200191611b81565b820191906000526020600020905b815481529060010190602001808311611b6457829003601f168201915b5050505050915050919050565b60185481565b60606000611ba383600c611de0565b60ff1690506010808054905082611bba9190614594565b81548110611bf1577f4e487b7100000000000000000000000000000000000000000000000000000000600052603260045260246000fd5b906000526020600020018054611c06906144de565b80601f0160208091040260200160405190810160405280929190818152602001828054611c32906144de565b8015611c7f5780601f10611c5457610100808354040283529160200191611c7f565b820191906000526020600020905b815481529060010190602001808311611c6257829003601f168201915b5050505050915050919050565b60606000611c98612812565b90506000611ca58461284f565b90508181604051602001611cba929190613c0b565b60405160208183030381529060405292505050919050565b6000600560008473ffffffffffffffffffffffffffffffffffffffff1673ffffffffffffffffffffffffffffffffffffffff16815260200190815260200160002060008373ffffffffffffffffffffffffffffffffffffffff1673ffffffffffffffffffffffffffffffffffffffff16815260200190815260200160002060009054906101000a900460ff16905092915050565b60007f780e9d63000000000000000000000000000000000000000000000000000000007bffffffffffffffffffffffffffffffffffffffffffffffffffffffff1916827bffffffffffffffffffffffffffffffffffffffffffffffffffffffff19161480611dd95750611dd88261291c565b5b9050919050565b600081600a611def919061426f565b6001611dfb919061438d565b600283611e0891906141b4565b600a611e14919061426f565b6001611e20919061438d565b84611e2b9190614594565b611e3591906141eb565b905092915050565b60008073ffffffffffffffffffffffffffffffffffffffff166002600084815260200190815260200160002060009054906101000a900473ffffffffffffffffffffffffffffffffffffffff1673ffffffffffffffffffffffffffffffffffffffff1614159050919050565b600033905090565b816004600083815260200190815260200160002060006101000a81548173ffffffffffffffffffffffffffffffffffffffff021916908373ffffffffffffffffffffffffffffffffffffffff160217905550808273ffffffffffffffffffffffffffffffffffffffff16611f248361100d565b73ffffffffffffffffffffffffffffffffffffffff167f8c5be1e5ebec7d5bd14f71427d1e84f3dd0314c0f7b2291e5b200ac8c7c3b92560405160405180910390a45050565b600081600001549050919050565b611f928282604051806020016040528060008152506129fe565b5050565b6001816000016000828254019250508190555050565b6000611fb782611e3d565b611ff6576040517f08c379a0000000000000000000000000000000000000000000000000000000008152600401611fed90613f4a565b60405180910390fd5b60006120018361100d565b90508073ffffffffffffffffffffffffffffffffffffffff168473ffffffffffffffffffffffffffffffffffffffff16148061204357506120428185611cd2565b5b8061208157508373ffffffffffffffffffffffffffffffffffffffff1661206984610935565b73ffffffffffffffffffffffffffffffffffffffff16145b91505092915050565b8273ffffffffffffffffffffffffffffffffffffffff166120aa8261100d565b73ffffffffffffffffffffffffffffffffffffffff1614612100576040517f08c379a00000000000000000000000000000000000000000000000000000000081526004016120f790613eca565b60405180910390fd5b600073ffffffffffffffffffffffffffffffffffffffff168273ffffffffffffffffffffffffffffffffffffffff161415612170576040517f08c379a000000000000000000000000000000000000000000000000000000000815260040161216790613f0a565b60405180910390fd5b61217b838383612a59565b612186600082611eb1565b6001600360008573ffffffffffffffffffffffffffffffffffffffff1673ffffffffffffffffffffffffffffffffffffffff16815260200190815260200160002060008282546121d691906143e7565b925050819055506001600360008473ffffffffffffffffffffffffffffffffffffffff1673ffffffffffffffffffffffffffffffffffffffff168152602001908152602001600020600082825461222d919061415e565b92505081905550816002600083815260200190815260200160002060006101000a81548173ffffffffffffffffffffffffffffffffffffffff021916908373ffffffffffffffffffffffffffffffffffffffff160217905550808273ffffffffffffffffffffffffffffffffffffffff168473ffffffffffffffffffffffffffffffffffffffff167fddf252ad1be2c89b69c2b068fc378daa952ba7f163c4a11628f55a4df523b3ef60405160405180910390a46122ec838383612a69565b505050565b8173ffffffffffffffffffffffffffffffffffffffff168373ffffffffffffffffffffffffffffffffffffffff161415612360576040517f08c379a000000000000000000000000000000000000000000000000000000000815260040161235790613f2a565b60405180910390fd5b80600560008573ffffffffffffffffffffffffffffffffffffffff1673ffffffffffffffffffffffffffffffffffffffff16815260200190815260200160002060008473ffffffffffffffffffffffffffffffffffffffff1673ffffffffffffffffffffffffffffffffffffffff16815260200190815260200160002060006101000a81548160ff0219169083151502179055508173ffffffffffffffffffffffffffffffffffffffff168373ffffffffffffffffffffffffffffffffffffffff167f17307eab39ab6107e8899845ad3d59bd9653f200f220920489ca2b5937696c31836040516124519190613e4d565b60405180910390a3505050565b61246984848461208a565b61247584848484612a6e565b6124b4576040517f08c379a00000000000000000000000000000000000000000000000000000000081526004016124ab90613eaa565b60405180910390fd5b50505050565b60606000821415612502576040518060400160405280600181526020017f30000000000000000000000000000000000000000000000000000000000000008152509050612662565b600082905060005b6000821461253457808061251d90614541565b915050600a8261252d91906141eb565b915061250a565b60008167ffffffffffffffff811115612576577f4e487b7100000000000000000000000000000000000000000000000000000000600052604160045260246000fd5b6040519080825280601f01601f1916602001820160405280156125a85781602001600182028036833780820191505090505b5090505b6000851461265b576001826125c191906143e7565b9150600a856125d09190614594565b60306125dc919061415e565b60f81b818381518110612618577f4e487b7100000000000000000000000000000000000000000000000000000000600052603260045260246000fd5b60200101907effffffffffffffffffffffffffffffffffffffffffffffffffffffffffffff1916908160001a905350600a8561265491906141eb565b94506125ac565b8093505050505b919050565b606060008251141561268a5760405180602001604052806000815250905061280d565b6000604051806060016040528060408152602001614ef760409139905060006003600285516126b9919061415e565b6126c391906141eb565b60046126cf919061438d565b905060006020826126e0919061415e565b67ffffffffffffffff81111561271f577f4e487b7100000000000000000000000000000000000000000000000000000000600052604160045260246000fd5b6040519080825280601f01601f1916602001820160405280156127515781602001600182028036833780820191505090505b509050818152600183018586518101602084015b818310156127cc576003830192508251603f8160121c1685015160f81b8252600182019150603f81600c1c1685015160f81b8252600182019150603f8160061c1685015160f81b8252600182019150603f811685015160f81b825260018201915050612765565b6003895106600181146127e657600281146127f657612801565b613d3d60f01b6002830352612801565b603d60f81b60018303525b50505050508093505050505b919050565b60606040518060400160405280601581526020017f68747470733a2f2f6176617461616172732e696f2f0000000000000000000000815250905090565b60608061285b8361126f565b612864846118cf565b61286d85610b69565b61287686611367565b61287f876107ab565b61288888611a96565b61289189611b94565b61289a8a61175d565b6128a38b611665565b6128ac8c61145f565b6128b58d610d66565b6128be8e611177565b6040516020016128d99c9b9a99989796959493929190613c7f565b6040516020818303038152906040529050806128f484610f15565b604051602001612905929190613bdc565b604051602081830303815290604052915050919050565b60007f80ac58cd000000000000000000000000000000000000000000000000000000007bffffffffffffffffffffffffffffffffffffffffffffffffffffffff1916827bffffffffffffffffffffffffffffffffffffffffffffffffffffffff191614806129e757507f5b5e139f000000000000000000000000000000000000000000000000000000007bffffffffffffffffffffffffffffffffffffffffffffffffffffffff1916827bffffffffffffffffffffffffffffffffffffffffffffffffffffffff1916145b806129f757506129f682612c05565b5b9050919050565b612a088383612c6f565b612a156000848484612a6e565b612a54576040517f08c379a0000000000000000000000000000000000000000000000000000000008152600401612a4b90613eaa565b60405180910390fd5b505050565b612a64838383612e49565b505050565b505050565b6000612a8f8473ffffffffffffffffffffffffffffffffffffffff16612f5d565b15612bf8578373ffffffffffffffffffffffffffffffffffffffff1663150b7a02612ab8611ea9565b8786866040518563ffffffff1660e01b8152600401612ada9493929190613e01565b602060405180830381600087803b158015612af457600080fd5b505af1925050508015612b2557506040513d601f19601f82011682018060405250810190612b22919061359e565b60015b612ba8573d8060008114612b55576040519150601f19603f3d011682016040523d82523d6000602084013e612b5a565b606091505b50600081511415612ba0576040517f08c379a0000000000000000000000000000000000000000000000000000000008152600401612b9790613eaa565b60405180910390fd5b805181602001fd5b63150b7a0260e01b7bffffffffffffffffffffffffffffffffffffffffffffffffffffffff1916817bffffffffffffffffffffffffffffffffffffffffffffffffffffffff191614915050612bfd565b600190505b949350505050565b60007f01ffc9a7000000000000000000000000000000000000000000000000000000007bffffffffffffffffffffffffffffffffffffffffffffffffffffffff1916827bffffffffffffffffffffffffffffffffffffffffffffffffffffffff1916149050919050565b600073ffffffffffffffffffffffffffffffffffffffff168273ffffffffffffffffffffffffffffffffffffffff161415612cdf576040517f08c379a0000000000000000000000000000000000000000000000000000000008152600401612cd690613fca565b60405180910390fd5b612ce881611e3d565b15612d28576040517f08c379a0000000000000000000000000000000000000000000000000000000008152600401612d1f90613eea565b60405180910390fd5b612d3460008383612a59565b6001600360008473ffffffffffffffffffffffffffffffffffffffff1673ffffffffffffffffffffffffffffffffffffffff1681526020019081526020016000206000828254612d84919061415e565b92505081905550816002600083815260200190815260200160002060006101000a81548173ffffffffffffffffffffffffffffffffffffffff021916908373ffffffffffffffffffffffffffffffffffffffff160217905550808273ffffffffffffffffffffffffffffffffffffffff16600073ffffffffffffffffffffffffffffffffffffffff167fddf252ad1be2c89b69c2b068fc378daa952ba7f163c4a11628f55a4df523b3ef60405160405180910390a4612e4560008383612a69565b5050565b612e54838383612f80565b600073ffffffffffffffffffffffffffffffffffffffff168373ffffffffffffffffffffffffffffffffffffffff161415612e9757612e9281612f85565b612ed6565b8173ffffffffffffffffffffffffffffffffffffffff168373ffffffffffffffffffffffffffffffffffffffff1614612ed557612ed48382612fce565b5b5b600073ffffffffffffffffffffffffffffffffffffffff168273ffffffffffffffffffffffffffffffffffffffff161415612f1957612f148161313b565b612f58565b8273ffffffffffffffffffffffffffffffffffffffff168273ffffffffffffffffffffffffffffffffffffffff1614612f5757612f56828261327e565b5b5b505050565b6000808273ffffffffffffffffffffffffffffffffffffffff163b119050919050565b505050565b6008805490506009600083815260200190815260200160002081905550600881908060018154018082558091505060019003906000526020600020016000909190919091505550565b60006001612fdb846110bf565b612fe591906143e7565b90506000600760008481526020019081526020016000205490508181146130ca576000600660008673ffffffffffffffffffffffffffffffffffffffff1673ffffffffffffffffffffffffffffffffffffffff168152602001908152602001600020600084815260200190815260200160002054905080600660008773ffffffffffffffffffffffffffffffffffffffff1673ffffffffffffffffffffffffffffffffffffffff168152602001908152602001600020600084815260200190815260200160002081905550816007600083815260200190815260200160002081905550505b6007600084815260200190815260200160002060009055600660008573ffffffffffffffffffffffffffffffffffffffff1673ffffffffffffffffffffffffffffffffffffffff16815260200190815260200160002060008381526020019081526020016000206000905550505050565b6000600160088054905061314f91906143e7565b90506000600960008481526020019081526020016000205490506000600883815481106131a5577f4e487b7100000000000000000000000000000000000000000000000000000000600052603260045260246000fd5b9060005260206000200154905080600883815481106131ed577f4e487b7100000000000000000000000000000000000000000000000000000000600052603260045260246000fd5b906000526020600020018190555081600960008381526020019081526020016000208190555060096000858152602001908152602001600020600090556008805480613262577f4e487b7100000000000000000000000000000000000000000000000000000000600052603160045260246000fd5b6001900381819060005260206000200160009055905550505050565b6000613289836110bf565b905081600660008573ffffffffffffffffffffffffffffffffffffffff1673ffffffffffffffffffffffffffffffffffffffff168152602001908152602001600020600083815260200190815260200160002081905550806007600084815260200190815260200160002081905550505050565b600061331061330b846140ea565b6140c5565b90508281526020810184848401111561332857600080fd5b61333384828561449c565b509392505050565b60008135905061334a81614e9a565b92915050565b60008135905061335f81614eb1565b92915050565b60008135905061337481614ec8565b92915050565b60008151905061338981614ec8565b92915050565b600082601f8301126133a057600080fd5b81356133b08482602086016132fd565b91505092915050565b6000813590506133c881614edf565b92915050565b6000602082840312156133e057600080fd5b60006133ee8482850161333b565b91505092915050565b6000806040838503121561340a57600080fd5b60006134188582860161333b565b92505060206134298582860161333b565b9150509250929050565b60008060006060848603121561344857600080fd5b60006134568682870161333b565b93505060206134678682870161333b565b9250506040613478868287016133b9565b9150509250925092565b6000806000806080858703121561349857600080fd5b60006134a68782880161333b565b94505060206134b78782880161333b565b93505060406134c8878288016133b9565b925050606085013567ffffffffffffffff8111156134e557600080fd5b6134f18782880161338f565b91505092959194509250565b6000806040838503121561351057600080fd5b600061351e8582860161333b565b925050602061352f85828601613350565b9150509250929050565b6000806040838503121561354c57600080fd5b600061355a8582860161333b565b925050602061356b858286016133b9565b9150509250929050565b60006020828403121561358757600080fd5b600061359584828501613365565b91505092915050565b6000602082840312156135b057600080fd5b60006135be8482850161337a565b91505092915050565b6000602082840312156135d957600080fd5b60006135e7848285016133b9565b91505092915050565b6000806040838503121561360357600080fd5b6000613611858286016133b9565b92505060206136228582860161333b565b9150509250929050565b6136358161441b565b82525050565b6136448161442d565b82525050565b60006136558261411b565b61365f8185614131565b935061366f8185602086016144ab565b61367881614681565b840191505092915050565b600061368e82614126565b6136988185614142565b93506136a88185602086016144ab565b6136b181614681565b840191505092915050565b60006136c782614126565b6136d18185614153565b93506136e18185602086016144ab565b80840191505092915050565b60006136fa600983614153565b91506137058261469f565b600982019050919050565b600061371d601183614153565b9150613728826146c8565b601182019050919050565b6000613740602b83614142565b915061374b826146f1565b604082019050919050565b6000613763603283614142565b915061376e82614740565b604082019050919050565b6000613786602583614142565b91506137918261478f565b604082019050919050565b60006137a9601c83614142565b91506137b4826147de565b602082019050919050565b60006137cc600a83614153565b91506137d782614807565b600a82019050919050565b60006137ef600c83614153565b91506137fa82614830565b600c82019050919050565b6000613812602483614142565b915061381d82614859565b604082019050919050565b6000613835601983614142565b9150613840826148a8565b602082019050919050565b6000613858600b83614153565b9150613863826148d1565b600b82019050919050565b600061387b602c83614142565b9150613886826148fa565b604082019050919050565b600061389e600d83614153565b91506138a982614949565b600d82019050919050565b60006138c1600b83614153565b91506138cc82614972565b600b82019050919050565b60006138e4600183614153565b91506138ef8261499b565b600182019050919050565b6000613907601883614153565b9150613912826149c4565b601882019050919050565b600061392a603883614142565b9150613935826149ed565b604082019050919050565b600061394d602a83614142565b915061395882614a3c565b604082019050919050565b6000613970602983614142565b915061397b82614a8b565b604082019050919050565b6000613993600b83614153565b915061399e82614ada565b600b82019050919050565b60006139b6600283614153565b91506139c182614b03565b600282019050919050565b60006139d9602083614142565b91506139e482614b2c565b602082019050919050565b60006139fc601683614142565b9150613a0782614b55565b602082019050919050565b6000613a1f607983614153565b9150613a2a82614b7e565b607982019050919050565b6000613a42600d83614153565b9150613a4d82614c19565b600d82019050919050565b6000613a65602c83614142565b9150613a7082614c42565b604082019050919050565b6000613a88600983614153565b9150613a9382614c91565b600982019050919050565b6000613aab602183614142565b9150613ab682614cba565b604082019050919050565b6000613ace600d83614153565b9150613ad982614d09565b600d82019050919050565b6000613af1601083614153565b9150613afc82614d32565b601082019050919050565b6000613b14601d83614153565b9150613b1f82614d5b565b601d82019050919050565b6000613b37603183614142565b9150613b4282614d84565b604082019050919050565b6000613b5a602c83614142565b9150613b6582614dd3565b604082019050919050565b6000613b7d601083614153565b9150613b8882614e22565b601082019050919050565b6000613ba0603083614142565b9150613bab82614e4b565b604082019050919050565b613bbf81614485565b82525050565b613bd6613bd182614485565b61458a565b82525050565b6000613be882856136bc565b9150613bf3826136ed565b9150613bff82846136bc565b91508190509392505050565b6000613c1782856136bc565b9150613c22826138d7565b9150613c2e82846136bc565b91508190509392505050565b6000613c45826138fa565b9150613c5182856136bc565b9150613c5c82613a12565b9150613c6882846136bc565b9150613c73826139a9565b91508190509392505050565b6000613c8a82613ae4565b9150613c96828f6136bc565b9150613ca182613891565b9150613cad828e6136bc565b9150613cb8826137e2565b9150613cc4828d6136bc565b9150613ccf82613a7b565b9150613cdb828c6136bc565b9150613ce682613ac1565b9150613cf2828b6136bc565b9150613cfd82613710565b9150613d09828a6136bc565b9150613d1482613b70565b9150613d2082896136bc565b9150613d2b8261384b565b9150613d3782886136bc565b9150613d42826137bf565b9150613d4e82876136bc565b9150613d5982613a35565b9150613d6582866136bc565b9150613d7082613986565b9150613d7c82856136bc565b9150613d87826138b4565b9150613d9382846136bc565b91508190509d9c50505050505050505050505050565b6000613db482613b07565b9150613dc082846136bc565b915081905092915050565b6000613dd78284613bc5565b60208201915081905092915050565b6000602082019050613dfb600083018461362c565b92915050565b6000608082019050613e16600083018761362c565b613e23602083018661362c565b613e306040830185613bb6565b8181036060830152613e42818461364a565b905095945050505050565b6000602082019050613e62600083018461363b565b92915050565b60006020820190508181036000830152613e828184613683565b905092915050565b60006020820190508181036000830152613ea381613733565b9050919050565b60006020820190508181036000830152613ec381613756565b9050919050565b60006020820190508181036000830152613ee381613779565b9050919050565b60006020820190508181036000830152613f038161379c565b9050919050565b60006020820190508181036000830152613f2381613805565b9050919050565b60006020820190508181036000830152613f4381613828565b9050919050565b60006020820190508181036000830152613f638161386e565b9050919050565b60006020820190508181036000830152613f838161391d565b9050919050565b60006020820190508181036000830152613fa381613940565b9050919050565b60006020820190508181036000830152613fc381613963565b9050919050565b60006020820190508181036000830152613fe3816139cc565b9050919050565b60006020820190508181036000830152614003816139ef565b9050919050565b6000602082019050818103600083015261402381613a58565b9050919050565b6000602082019050818103600083015261404381613a9e565b9050919050565b6000602082019050818103600083015261406381613b2a565b9050919050565b6000602082019050818103600083015261408381613b4d565b9050919050565b600060208201905081810360008301526140a381613b93565b9050919050565b60006020820190506140bf6000830184613bb6565b92915050565b60006140cf6140e0565b90506140db8282614510565b919050565b6000604051905090565b600067ffffffffffffffff82111561410557614104614652565b5b61410e82614681565b9050602081019050919050565b600081519050919050565b600081519050919050565b600082825260208201905092915050565b600082825260208201905092915050565b600081905092915050565b600061416982614485565b915061417483614485565b9250827fffffffffffffffffffffffffffffffffffffffffffffffffffffffffffffffff038211156141a9576141a86145c5565b5b828201905092915050565b60006141bf8261448f565b91506141ca8361448f565b92508260ff038211156141e0576141df6145c5565b5b828201905092915050565b60006141f682614485565b915061420183614485565b925082614211576142106145f4565b5b828204905092915050565b6000808291508390505b600185111561426657808604811115614242576142416145c5565b5b60018516156142515780820291505b808102905061425f85614692565b9450614226565b94509492505050565b600061427a82614485565b91506142858361448f565b92506142b27fffffffffffffffffffffffffffffffffffffffffffffffffffffffffffffffff84846142ba565b905092915050565b6000826142ca5760019050614386565b816142d85760009050614386565b81600181146142ee57600281146142f857614327565b6001915050614386565b60ff84111561430a576143096145c5565b5b8360020a915084821115614321576143206145c5565b5b50614386565b5060208310610133831016604e8410600b841016171561435c5782820a905083811115614357576143566145c5565b5b614386565b614369848484600161421c565b925090508184048111156143805761437f6145c5565b5b81810290505b9392505050565b600061439882614485565b91506143a383614485565b9250817fffffffffffffffffffffffffffffffffffffffffffffffffffffffffffffffff04831182151516156143dc576143db6145c5565b5b828202905092915050565b60006143f282614485565b91506143fd83614485565b9250828210156144105761440f6145c5565b5b828203905092915050565b600061442682614465565b9050919050565b60008115159050919050565b60007fffffffff0000000000000000000000000000000000000000000000000000000082169050919050565b600073ffffffffffffffffffffffffffffffffffffffff82169050919050565b6000819050919050565b600060ff82169050919050565b82818337600083830152505050565b60005b838110156144c95780820151818401526020810190506144ae565b838111156144d8576000848401525b50505050565b600060028204905060018216806144f657607f821691505b6020821081141561450a57614509614623565b5b50919050565b61451982614681565b810181811067ffffffffffffffff8211171561453857614537614652565b5b80604052505050565b600061454c82614485565b91507fffffffffffffffffffffffffffffffffffffffffffffffffffffffffffffffff82141561457f5761457e6145c5565b5b600182019050919050565b6000819050919050565b600061459f82614485565b91506145aa83614485565b9250826145ba576145b96145f4565b5b828206905092915050565b7f4e487b7100000000000000000000000000000000000000000000000000000000600052601160045260246000fd5b7f4e487b7100000000000000000000000000000000000000000000000000000000600052601260045260246000fd5b7f4e487b7100000000000000000000000000000000000000000000000000000000600052602260045260246000fd5b7f4e487b7100000000000000000000000000000000000000000000000000000000600052604160045260246000fd5b6000601f19601f8301169050919050565b60008160011c9050919050565b7f26746f70547970653d0000000000000000000000000000000000000000000000600082015250565b7f2666616369616c48616972436f6c6f723d000000000000000000000000000000600082015250565b7f455243373231456e756d657261626c653a206f776e657220696e646578206f7560008201527f74206f6620626f756e6473000000000000000000000000000000000000000000602082015250565b7f4552433732313a207472616e7366657220746f206e6f6e20455243373231526560008201527f63656976657220696d706c656d656e7465720000000000000000000000000000602082015250565b7f4552433732313a207472616e736665722066726f6d20696e636f72726563742060008201527f6f776e6572000000000000000000000000000000000000000000000000000000602082015250565b7f4552433732313a20746f6b656e20616c7265616479206d696e74656400000000600082015250565b7f26686174436f6c6f723d00000000000000000000000000000000000000000000600082015250565b7f26636c6f746865547970653d0000000000000000000000000000000000000000600082015250565b7f4552433732313a207472616e7366657220746f20746865207a65726f2061646460008201527f7265737300000000000000000000000000000000000000000000000000000000602082015250565b7f4552433732313a20617070726f766520746f2063616c6c657200000000000000600082015250565b7f2668616972436f6c6f723d000000000000000000000000000000000000000000600082015250565b7f4552433732313a206f70657261746f7220717565727920666f72206e6f6e657860008201527f697374656e7420746f6b656e0000000000000000000000000000000000000000602082015250565b7f26636c6f746865436f6c6f723d00000000000000000000000000000000000000600082015250565b7f26736b696e436f6c6f723d000000000000000000000000000000000000000000600082015250565b7f3f00000000000000000000000000000000000000000000000000000000000000600082015250565b7f7b20226e616d65223a2022506c61747a6950756e6b7320230000000000000000600082015250565b7f4552433732313a20617070726f76652063616c6c6572206973206e6f74206f7760008201527f6e6572206e6f7220617070726f76656420666f7220616c6c0000000000000000602082015250565b7f4552433732313a2062616c616e636520717565727920666f7220746865207a6560008201527f726f206164647265737300000000000000000000000000000000000000000000602082015250565b7f4552433732313a206f776e657220717565727920666f72206e6f6e657869737460008201527f656e7420746f6b656e0000000000000000000000000000000000000000000000602082015250565b7f266d6f757468547970653d000000000000000000000000000000000000000000600082015250565b7f227d000000000000000000000000000000000000000000000000000000000000600082015250565b7f4552433732313a206d696e7420746f20746865207a65726f2061646472657373600082015250565b7f4e6f20506c61747a6950756e6b73206c656674203a2800000000000000000000600082015250565b7f222c20226465736372697074696f6e223a2022506c61747a692050756e6b732060008201527f6172652072616e646f6d697a6564204176617461616172732073746f7265642060208201527f6f6e20636861696e20746f207465616368204441707020646576656c6f706d6560408201527f6e74206f6e20506c61747a69222c2022696d616765223a202200000000000000606082015250565b7f2667726170686963547970653d00000000000000000000000000000000000000600082015250565b7f4552433732313a20617070726f76656420717565727920666f72206e6f6e657860008201527f697374656e7420746f6b656e0000000000000000000000000000000000000000602082015250565b7f26657965547970653d0000000000000000000000000000000000000000000000600082015250565b7f4552433732313a20617070726f76616c20746f2063757272656e74206f776e6560008201527f7200000000000000000000000000000000000000000000000000000000000000602082015250565b7f2665796562726f77547970653d00000000000000000000000000000000000000600082015250565b7f6163636573736f72696573547970653d00000000000000000000000000000000600082015250565b7f646174613a6170706c69636174696f6e2f6a736f6e3b6261736536342c000000600082015250565b7f4552433732313a207472616e736665722063616c6c6572206973206e6f74206f60008201527f776e6572206e6f7220617070726f766564000000000000000000000000000000602082015250565b7f455243373231456e756d657261626c653a20676c6f62616c20696e646578206f60008201527f7574206f6620626f756e64730000000000000000000000000000000000000000602082015250565b7f2666616369616c48616972547970653d00000000000000000000000000000000600082015250565b7f455243373231204d657461646174613a2055524920717565727920666f72206e60008201527f6f6e6578697374656e7420746f6b656e00000000000000000000000000000000602082015250565b614ea38161441b565b8114614eae57600080fd5b50565b614eba8161442d565b8114614ec557600080fd5b50565b614ed181614439565b8114614edc57600080fd5b50565b614ee881614485565b8114614ef357600080fd5b5056fe4142434445464748494a4b4c4d4e4f505152535455565758595a6162636465666768696a6b6c6d6e6f707172737475767778797a303132333435363738392b2fa2646970667358221220765ce0c712d8765e8e0515e3a43d61012cfd928328c329d4d2b53e11bad1bad464736f6c63430008040033",
  "linkReferences": {},
  "deployedLinkReferences": {}
}